:020000040000fa
:020000040800f2
:10000000f0ff1120912a000c1156000c1556000c1f
:100010001d56000c2156000c2556000c0000000057
:100020000000000000000000000000004552000c2d
:100030001956000c000000008544000c5d4d000cba
:100040002956000c2956000c2956000c2956000c84
:100050002956000c2956000c2956000c2956000c74
:100060002956000c2956000c2956000c2956000c64
:100070002956000c2956000c2956000cb94d000ccd
:10008000b94d000cb94d000cb94d000c2956000caf
:100090002956000c2956000c2956000c2956000c34
:1000a0002956000c2956000c2956000c2956000c24
:1000b0002956000c2956000c2956000c2956000c14
:1000c0002956000c2956000c2956000c2956000c04
:1003600000000000000000002956000c2956000c77
:100370002956000c2956000c2956000c2956000c51
:100380002956000c2956000c2956000c2956000c41
:100390002956000c8155000c2956000c2956000cda
:1003a0002956000c2956000c2956000c2956000c21
:0803b0002956000c2956000c2f
:020000040000fa
:020000040a00f0
:040000000100fefffe
:020000040000fa
:020000040a00f0
:04002000ffffffffe0
:020000040000fa
:020000040a00f0
:0400400000000000bc
:020000040000fa
:020000040a00f0
:04004400ffffffffbc
:020000040000fa
:020000040a00f0
:0400480001000000b3
:020000040000fa
:020000040a00f0
:04004c00410400006b
:020000040000fa
:020000040a00f0
:04005400ffff0000aa
:020000040000fa
:020000040a00f0
:040058007000000034
:020000040000fa
:020000040a00f0
:04005c00020000009e
:020000040000fa
:020000040a00f0
:04006000000000009c
:020000040000fa
:020000040a00f0
:040064000202000094
:020000040000fa
:020000040a00f0
:04008000ffffffff80
:020000040000fa
:020000040a00f0
:0400a000ffffffff60
:020000040000fa
:020000040a00f0
:04200000000000c01c
:020000040000fa
:020000040a00f0
:042004000100feffda
:020000040000fa
:020000040a00f0
:04200800ffffffffd8
:020000040000fa
:020000040a00f0
:04208000ffffffff60
:020000040000fa
:020000040a00f0
:04208400ffffffff5c
:020000040000fa
:020000040a00f0
:04208800ffffffff58
:020000040000fa
:020000040a00f0
:04208c00ffffffff54
:020000040000fa
:020000040a00f0
:04209000ffffffff50
:020000040000fa
:020000040a00f0
:04209400ffffffff4c
:020000040000fa
:020000040a00f0
:04209800ffffffff48
:020000040000fa
:020000040a00f0
:04209c00ffffffff44
:020000040000fa
:020000040a00f0
:0420a000ffffffff40
:020000040000fa
:020000040a00f0
:0420a400ffffffff3c
:020000040000fa
:020000040a00f0
:0420a800ffffffff38
:020000040000fa
:020000040a00f0
:0420ac00ffffffff34
:020000040000fa
:020000040a00f0
:0420b000ffffffff30
:020000040000fa
:020000040a00f0
:0420b400ffffffff2c
:020000040000fa
:020000040a00f0
:0420b800ffffffff28
:020000040000fa
:020000040a00f0
:0420bc00ffffffff24
:020000040000fa
:020000040a00f0
:0420c000ffffffff20
:020000040000fa
:020000040a00f0
:0420c400ffffffff1c
:020000040000fa
:020000040a00f0
:0420c800ffffffff18
:020000040000fa
:020000040a00f0
:0420cc00ffffffff14
:020000040000fa
:020000040a00f0
:0420d000ffffffff10
:020000040000fa
:020000040a00f0
:0420d400ffffffff0c
:020000040000fa
:020000040a00f0
:0420d800ffffffff08
:020000040000fa
:020000040a00f0
:0420dc00ffffffff04
:020000040000fa
:020000040a00f0
:0420e00006070000ef
:020000040000fa
:020000040a00f0
:0420e40004cf0f0016
:020000040000fa
:020000040a00f0
:0420e80006f70401f2
:020000040000fa
:020000040a00f0
:0420ec00863a000030
:020000040000fa
:020000040a00f0
:0420f000ff030000ea
:020000040000fa
:020000040a00f0
:0420f4003f000000a9
:020000040000fa
:020000040a00f0
:0420f800bf00000025
:020000040000fa
:020000040a00f0
:0420fc00ffffffffe4
:020000040000fa
:020000040a00f0
:04210000ffffffffdf
:020000040000fa
:020000040a00f0
:04211000ffffffffcf
:020000040000fa
:020000040a00f0
:04211400ffffffffcb
:020000040000fa
:020000040a00f0
:04211800ffffffffc7
:020000040000fa
:020000040a00f0
:04211c00ffffffffc3
:020000040000fa
:020000040a00f0
:04212000ffffffffbf
:020000040000fa
:020000040a00f0
:048000000000ffff7e
:020000040000fa
:020000040a00f0
:04802000ffffffff60
:020000040000fa
:020000040a00f0
:0480400044000000f8
:020000040000fa
:020000040a00f0
:04804400ffffffff3c
:020000040000fa
:020000040a00f0
:048048000100000033
:020000040000fa
:020000040a00f0
:04804c0041040000eb
:020000040000fa
:020000040a00f0
:04805400ffff00002a
:020000040000fa
:020000040a00f0
:0480580070000000b4
:020000040000fa
:020000040a00f0
:04805c00020000001e
:020000040000fa
:020000040a00f0
:04806000000000001c
:020000040000fa
:020000040a00f0
:048064000202000014
:020000040000fa
:020000040a00f0
:04808000ffffffff00
:020000040000fa
:020000040a00f0
:0480a000ffffffffe0
:020000040000fa
:020000040a00f0
:04a00000000000c09c
:020000040000fa
:020000040a00f0
:04a004000000ffff5a
:020000040000fa
:020000040a00f0
:04a00800ffffffff58
:020000040000fa
:020000040a00f0
:04a08000ffffffffe0
:020000040000fa
:020000040a00f0
:04a08400ffffffffdc
:020000040000fa
:020000040a00f0
:04a08800ffffffffd8
:020000040000fa
:020000040a00f0
:04a08c00ffffffffd4
:020000040000fa
:020000040a00f0
:04a09000ffffffffd0
:020000040000fa
:020000040a00f0
:04a09400ffffffffcc
:020000040000fa
:020000040a00f0
:04a09800ffffffffc8
:020000040000fa
:020000040a00f0
:04a09c00ffffffffc4
:020000040000fa
:020000040a00f0
:04a0a000ffffffffc0
:020000040000fa
:020000040a00f0
:04a0a400ffffffffbc
:020000040000fa
:020000040a00f0
:04a0a800ffffffffb8
:020000040000fa
:020000040a00f0
:04a0ac00ffffffffb4
:020000040000fa
:020000040a00f0
:04a0b000ffffffffb0
:020000040000fa
:020000040a00f0
:04a0b400ffffffffac
:020000040000fa
:020000040a00f0
:04a0b800ffffffffa8
:020000040000fa
:020000040a00f0
:04a0bc00ffffffffa4
:020000040000fa
:020000040a00f0
:04a0c000ffffffffa0
:020000040000fa
:020000040a00f0
:04a0c400ffffffff9c
:020000040000fa
:020000040a00f0
:04a0c800ffffffff98
:020000040000fa
:020000040a00f0
:04a0cc00ffffffff94
:020000040000fa
:020000040a00f0
:04a0d000ffffffff90
:020000040000fa
:020000040a00f0
:04a0d400ffffffff8c
:020000040000fa
:020000040a00f0
:04a0d800ffffffff88
:020000040000fa
:020000040a00f0
:04a0dc00ffffffff84
:020000040000fa
:020000040a00f0
:04a0e000060700006f
:020000040000fa
:020000040a00f0
:04a0e40004cf0f0096
:020000040000fa
:020000040a00f0
:04a0e80006f7040172
:020000040000fa
:020000040a00f0
:04a0ec00863a0000b0
:020000040000fa
:020000040a00f0
:04a0f000ff0300006a
:020000040000fa
:020000040a00f0
:04a0f4003f00000029
:020000040000fa
:020000040a00f0
:04a0f800bf000000a5
:020000040000fa
:020000040a00f0
:04a0fc00ffffffff64
:020000040000fa
:020000040a00f0
:04a10000ffffffff5f
:020000040000fa
:020000040a00f0
:04a11000ffffffff4f
:020000040000fa
:020000040a00f0
:04a11400ffffffff4b
:020000040000fa
:020000040a00f0
:04a11800ffffffff47
:020000040000fa
:020000040a00f0
:04a11c00ffffffff43
:020000040000fa
:020000040a00f0
:04a12000ffffffff3f
:020000040000fa
:020000040c00ee
:10000000f8b500bff8bc08bc9e467047d549000c47
:10001000f8b500bff8bc08bc9e467047b149000c5b
:020000040000fa
:020000040c00ee
:100020002de9f04f87b0054600238df81730046d99
:1000300004f58054a67af6b2d0f8fc7016f0040fde
:100040000fd080f80431022380f8643090f84d30ee
:10005000012b00f09e807b681bb100220221b86852
:10006000984716f0010f07d07b68002b00f0bb8289
:1000700000220421b868984716f0020f05d07b686b
:1000800063b100220321b868984716f0080f05d025
:100090007b681bb100220721b86898476388deb2ed
:1000a000a388dfb216f0010f35d0d5f86080a37bae
:1000b0006ff30303a37394f80231dbb213f0040f60
:1000c00010d0002185f8041194f8022161f3820216
:1000d00084f8022198f8072002f0fd0288f8072032
:1000e00088f8132008f10c0913f0100f5ad094f877
:1000f000022142f0800284f80221002285f80421c6
:1001000013f0010f07d095f80421002a00f0898030
:10011000092a00f01781d5f8608016f0020f40f030
:10012000a38117f0020f31d008f1180198f81f30a1
:1001300013f0010f2ad094f81631dbb213f0400f00
:1001400005d094f8162102f0bf0284f81621d8f8e1
:100150001860deb113f0010f18d096f9083013f1d2
:10016000020f40f00e82b369c8f8183094f81631c7
:1001700013f0010f40f0fe8194f8163103f0fe03f6
:1001800084f81631f3680bb13046984707b0bde8e4
:10019000f08f637813f0100f3ff45daf012380f808
:1001a000643058e713f0010f31d195f80431072b73
:1001b00040f04581d8f80c000028acd0036a002b31
:1001c00040f02a81036913f0020f00f00081836977
:1001d000c8f80c3000230372c36803b19847d8f8fd
:1001e0000c30002b00f0ef80002202920df117017d
:1001f0000191009301234946284601f01bf9b8f804
:10020000103083428cbf0a230223a37483e795f83e
:100210000421131fdbb2032b3ff677af002385f8d1
:100220000431d8f8000098f8073003f0fd0388f88f
:10023000073088f8133000283ff46daf0368226a56
:100240001a60226a5a604fea124a93f900b00223f8
:100250000372082343608369c8f80030c36803b1a0
:100260009847baf1000f2ed198f8073013f0020f1b
:100270007ff451afbbf1000f0edbd8f80c303bb16f
:1002800004221a72062385f804314823a37442e736
:10029000052385f804313ee74023a374d8f80c30d9
:1002a0006bb1072385f80431d8f80c3004221a7298
:1002b000d8f80c3000221a620a23a3742be7042317
:1002c00085f8043127e798f8073013f0020f7ff420
:1002d00022afbbf1000f0cdb4023a374d8f8003031
:1002e00063b3092385f80431d8f8003004221a7268
:1002f00011e74023a374d8f80c30dbb1072385f84d
:100300000431d8f80c3004221a72002202920df146
:1003100017030193d8f80c3000930123494628466f
:1003200001f088f8b8f8103083428cbf0a2302230a
:10033000a374f0e6042385f80431ece6012385f884
:100340000431e8e6d8f80090b9f1000f3ff4e3aecd
:10035000002202920df117030193cdf8009013468d
:100360004146284601f066f84023a374b8f80430eb
:10037000834206d8d9f82020d9f804309a42fff4f5
:10038000caaed9f82020d9f8043093422cbf0023fc
:10039000012389f80830c9f80420d9f81830c8f8c2
:1003a0000030d9f80c300bb148469847d8f80c30db
:1003b0002bb1062385f804310823a374abe605238b
:1003c00085f80431a7e6042385f80431a3e613f089
:1003d000800f09d023f08003036194f8023143f0c9
:1003e000020384f8023196e68369c8f80c300023d2
:1003f0000372c36803b19847d8f8000040b10023e6
:10040000037243608369c8f80030c36803b198473a
:10041000002385f804317ee6002202920df11703d5
:100420000193009001234946284601f003f8b8f8eb
:10043000103083428cbf0a230223a3746be6062b81
:100440007ff469aed8f80c0000283ff464ae0023b6
:10045000436003728369c8f80c30c36803b19847de
:10046000002385f8043156e608f1240698f82b306d
:1004700013f0010f3ff455ae94f8123113f0200f32
:1004800005d094f8123103f0df0384f81231d8f864
:10049000240000283ff445ae90f9083013f1020f14
:1004a00016d0036a002b47d1036913f0800f18d0d0
:1004b00023f08003036194f8123103f0fb0384f806
:1004c000123194f8123143f0010384f8123128e616
:1004d0008369c8f82430c368002b3ff422ae9847e4
:1004e0001fe6002303728369c8f82430c36803b190
:1004f0009847d8f82430002b3ff413ae0022029224
:100500000df117020192009301231a463146284645
:1005100000f090ff9df81730002b7ff402ae94f8a6
:10052000123103f0fb0384f8123194f8123143f0d6
:10053000010384f81231f4e5002302930df117034f
:100540000193009001231a463146284600f072ffbd
:100550009df81730002b7ff4e4ad94f8123103f0ce
:10056000fb0384f8123194f8123143f0010384f84c
:100570001231d6e594f8163143f0100384f81631a1
:10058000fae5002302930df1170201920096012271
:10059000284600f04fff9df81730002b7ff4f6ad92
:1005a00094f8163103f0fe0384f81631b8f81c30c5
:1005b000834204d8326a73689a42fff4e7ad326a24
:1005c0007368934294bf0023012333727260002347
:1005d0003362b369c8f81830f368002b3ff4d6ad26
:1005e00030469847d2e516f0020f7ff457ad4ce540
:020000040000fa
:020000040c00ee
:1005f000c8a802201c00000000000000000002202b
:10060000400400000000000064a802203000000048
:1006100000000000400402201c0100000000000057
:10062000a4a902205000000001000000ed39000cd8
:100630001554000ca341000c2150000cf54b000c8c
:100640000d56000cf94c000c7518000cd90e000c5e
:10065000511a000c251c000c511f000c894b000c7a
:10066000bf4b000c710b000c000000009923000c24
:100670006552000c8352000c0133000c5c05022013
:100680000c0000000000000048a902200c0000003f
:100690000000000098a802203000000000000000c8
:1006a000c8a60220a000000000000000680502208b
:1006b00004000000000000006ca502205c010000a6
:1006c000000000001ca802204800000000000000fc
:1006d00054a90220080000000000000094a8022095
:1006e00004000000000000005ca9022008000000d7
:1006f0000000000068a70220640000000000000065
:1007000064a902201400000000000000e4a80220f8
:10071000280000000000000078a90220100000005e
:10072000000000000ca902201400000000000000de
:1007300088a90220040000000000000020a9022077
:1007400028000000000000008ca902200800000022
:1007500000000000f4a902200800000001000000d1
:1007600004000000aaaaaaaa94a90220040000007a
:10077000000000006c05022000a000000000000046
:1007800098a902200800000000000000cca7022069
:100790005000000000000000a0a90220040000009a
:1007a0000000000000000000b8030000010000008d
:1007b000f0ff1120912a000c1156000c1556000c68
:1007c0001d56000c2156000c2556000c00000000a0
:1007d0000000000000000000000000004552000c76
:1007e0001956000c000000008544000c5d4d000c03
:1007f0002956000c2956000c2956000c2956000ccd
:100800002956000c2956000c2956000c2956000cbc
:100810002956000c2956000c2956000c2956000cac
:100820002956000c2956000c2956000cb94d000c15
:10083000b94d000cb94d000cb94d000c2956000cf7
:100840002956000c2956000c2956000c2956000c7c
:100850002956000c2956000c2956000c2956000c6c
:100860002956000c2956000c2956000c2956000c5c
:100870002956000c2956000c2956000c2956000c4c
:100b100000000000000000002956000c2956000cbf
:100b20002956000c2956000c2956000c2956000c99
:100b30002956000c2956000c2956000c2956000c89
:100b40002956000c8155000c2956000c2956000c22
:100b50002956000c2956000c2956000c2956000c69
:100b60002956000c2956000c00000000000000006f
:020000040000fa
:020000040c00ee
:100b70002de9f04f8bb000238df82730431e13f181
:100b8000030f00f2928192f90830022b00f390815a
:100b900001f00f084eb211f00e0f40f08c81037877
:100ba0000693002b00f08a81c5682b6d079308eb34
:100bb0004803002eb4bf0c21002101ebc30bd5f874
:100bc000609009eb0b0a9af8073013f0010f00f060
:100bd00078815168baf80400b1fbf0f300fb1313fd
:100be00053b9002e0bda136913f0010f07d031b19e
:100bf00043f08003136102e0002e80f26581144609
:100c00006f78afb9ab7805932bb1b5f9580003f005
:100c100049fe05900ee04ff0ff3105f15c0004f055
:100c20003ffb012840f053816f781fb9069fece726
:100c300000270597ab787bb3002306930023a361bd
:100c40009e42b4bf6368002323620323237259f8d2
:100c50000b20002a40f0f18049f80b400023e361ab
:100c600004232372b8f1000f40f09280002e19dbac
:100c700095f80431012b48d0022b40f0e580032386
:100c800085f80431079b03f5805b9bf8023143f044
:100c900008038bf80231d7e0b5f95a0003f002fee1
:100ca0000690cbe795f80431042b0cd0052b40f0cf
:100cb000cb80062385f80431079b03f5805b48232e
:100cc0008bf80231c0e002920df1270301930094ea
:100cd00001235146284600f0adfb072385f8043177
:100ce000baf80430834206d9079b03f5805b0a23d8
:100cf0008bf80231a8e0079b03f5805b9bf802317b
:100d000043f002038bf802319ee0079b03f5805607
:100d100096f8023113f0010f03d1092385f804314d
:100d200092e0002202920df12703019300941346f2
:100d30005146284600f07efbbaf80430834203d8bf
:100d4000226a63689a421cd3226a636893422cbf6a
:100d50000023012323726260a36949f80b30e36822
:100d60000bb120469847daf80c3033b1062385f8ea
:100d70000431482386f8023166e0052385f8043102
:100d800062e096f8023143f0400386f802315be0fe
:100d9000002e38db079b03f5805303eb081696f80b
:100da000063113f0010f4fd0002302930df12702fb
:100db0000192009442465146284600f03bfb9df8c4
:100dc0002730002b40d196f8063103f0fe0386f859
:100dd0000631baf80430834203d8226a63689a4223
:100de00032d3226a636893422cbf0023012323720b
:100df000626000232362a36949f80b30e3681bb3e8
:100e00002046984720e0002302930df12703019329
:100e10000094012342465146284600f00bfb9df802
:100e200027308bb9079b03eb081303f588539a7897
:100e300042f001029a7007e01a469369002bfbd139
:100e40009461e261032323726b78012b01d0059b2f
:100e50004bb9ab78012b01d0069b93b9ffb90020a9
:100e60000bb0bde8f08fb5f95830002bf1db590914
:100e700003f01f03012202fa03f3164a42f821305d
:100e8000e7e7b5f95a30002be8db590903f01f03f7
:100e9000012202fa03f30f4a42f82130dee705f19e
:100ea0005c0004f0f3f80020dae76ff07c00d7e78d
:100eb0006ff07a00d4e76ff07b00d1e76ff07c0031
:100ec000cee76ff07500cbe76ff07c00c8e76ff0fe
:080ed0007e00c5e700e100e02f
:020000040000fa
:020000040c00ee
:100ed80011f00e0f40f0ec802de9f04f85b001f0d5
:100ee8000f08441e14f1030f00f2e5800478002c6b
:100ef80000f0e480c7683d6d08eb480e4feace0e5f
:100f08003e6e06eb0e0cb8f1000f1fd1002046f81c
:100f18000e00acf804308cf806209cf8071041f05d
:100f280001018cf80710ccf80c00acf810308cf8e4
:100f380012209cf8133043f001038cf8133005f5a8
:100f480080550123eb8005b0bde8f08f1e461046a2
:100f5800009201914ffa81fbbbf1000fb4bf0c2343
:100f680000230ceb030900224cf80320a9f80460c5
:100f780089f8060099f8073043f0010389f807302b
:100f880097f801a0baf1000f19d1bb7802932bb1e1
:100f9800b7f9580003f082fc029014e04ff0ff31db
:100fa80007f15c0004f078f9012801d00020cae7b5
:100fb80097f801a0baf1000f05d1a246e8e74ff073
:100fc800000acdf808a0bb7893b100230393002e44
:100fd80077d0012e40f2d3800121490089b28e4298
:100fe800fbd80c46384602f0affaa9f808006fe0c3
:100ff800b7f95a0003f052fc0390e8e705f580556d
:10100800aa7b02f00f02a97b019c64f30301a97378
:10101800298a66f30a012982b5f8641060f30c0185
:10102800a5f86410a97c41f04001a97495f86210f4
:1010380063f3030185f86210009b012beb7c0cbf66
:1010480043f040036ff38613eb74ab7b62f3030347
:10105800ab73ea88012303fa08f3dbb21343eb808e
:101068007ce0eb7d43f04003eb7569e0b7f958305d
:10107800002b79db590903f01f03012202fa03f35d
:10108800434a42f821306fe0b7f95a30002b71db40
:10109800590903f01f03012202fa03f33c4a42f8fc
:1010a800213067e007f15c0003f0ecff00204ae71d
:1010b8006ff07b0070476ff07c0044e76ff07c00b6
:1010c80041e70021384602f03ffaa9f80800002459
:1010d80000236408013314f0010ffad0033bbbf17d
:1010e800000f8bdb05f58055aa7b02f00f02a97b68
:1010f800019c64f30301a973a98a66f30a01a98212
:10110800b5f8661060f30c01a5f86610a97d41f0ea
:101118008001a97595f8631063f3030185f86310de
:10112800009b012b9dd0009b032beb7d0cbf43f054
:1011380010036ff30413eb75eb7d6ff38613eb75f8
:10114800ab7b62f30303ab732a89012303fa08f824
:101158005ffa88f848ea0208a5f808807b78012b2e
:1011680002d0029b002b81d1bb78012b02d0039bbc
:10117800002b89d1baf1000f94d10020e3e60121b8
:10118800384602f0e1f9a9f808000023a6e700bff5
:0411980000e100e092
:020000040000fa
:020000040c00ee
:10119c00f8b5a14a4ff48e7303fb002393f94c303e
:1011ac00002b1fdd05464ff48e7404fb0024206dcc
:1011bc0094f86830013b032b14d8dfe803f0021ecf
:1011cc002f83964b98420ed000f58050036843f065
:1011dc0001030360904b4ff48e7000fb053002232b
:1011ec0080f86830f8bd8e4ad36943f48033d361fc
:1011fc00d36813f4807ffbd0e6e7c36913f0020fca
:10120c00f0d1836913f0010fecd1834b4ff48e7046
:10121c0000fb0530032380f86830e3e77e4a4ff487
:10122c008e7303fb052393f85430012b40d05ab234
:10123c00cab3022b43d0784a4ff48e7303fb0523b9
:10124c00b3f95830002b0cdb590903f01f030122b2
:10125c0002fa03f3734a01f1600042f8203042f8bd
:10126c0021306d4a4ff48e7303fb0523b3f95a30ca
:10127c00002b0cdb590903f01f03012202fa03f3c4
:10128c00684a01f1600042f8203042f82130624b8c
:10129c004ff48e7000fb0530022380f84c30042391
:1012ac0080f868309ee7a9b2204602f048fec2e7fb
:1012bc0003f036fba9b2204602f041febbe703f077
:1012cc00bbf9b8e7544a4ff48e7303fb05235b6def
:1012dc0003f0ff13b3f5803f07d04ff48e7303fb7d
:1012ec00052393f85430012b7ed100f5805090f8f3
:1012fc00606006f01806484a4ff48e7303fb052312
:10130c0093f86930b34235d00bb9082e65d0102e46
:10131c0014bf00220122082b01d1002a5dd1182b09
:10132c0000d182bb3c4a4ff48e7303fb0523d3f8e8
:10133c00fc00182e33d0384a4ff48e7303fb052370
:10134c0093f86630012b48d0002846d043681bb177
:10135c0000220921806898472f4a4ff48e7303fbb3
:10136c000523012283f86620002283f8672083f886
:10137c006b2032e011464ff48e7202fb051292f88c
:10138c006b208ab3c0e7244a4ff48e7303fb05230a
:10139c00002283f86620012283f86b201de0e0b167
:1013ac00476897b14ff48e7303fb052393f86730ae
:1013bc005bb9002208218068b847174a4ff48e7336
:1013cc0003fb0523012283f86720134a4ff48e7325
:1013dc0003fb0523002283f866200f4a4ff48e731b
:1013ec0003fb052383f869600b4a4ff48e7303fbf0
:1013fc00052393f85430012b3ff6f4ae4ff48e7363
:10140c0003fb052090f86a30002b3ff4ebae20462e
:10141c0002f0c0fbe6e600bf400402200000014fd2
:08142c000000024400e100e0b1
:020000040000fa
:020000040c00ee
:101434002de9f04782469146089d9df828202f68a3
:10144400066d012b26d0b9f1000f00f00081002aaf
:1014540040f0a280286a06f5805109f1080c4fea91
:101464008c0c01eb0919b9f80841c4f30d0454b10b
:101474000023384403f0030262448a5cd2b2c254ab
:1014840001339c42f6d10023099a13702b6a23443a
:101494002b62f6e02b6a8c889c4228bf1c46696844
:1014a400a1eb0308b9f1000f14d106f5805154b132
:1014b40007eb080304eb0800384413f8012b81f808
:1014c40020209842f9d10023099a13702b6a1b1b20
:1014d4002b62d6e0aab906eb890101f581514cb122
:1014e40007eb080304eb0800384413f8012b0a70d7
:1014f4008342fad10023099a13702b6a1b1b2b62b7
:10150400bfe04a46012103f08dfb0346a8b906eb70
:10151400890101f581514cb107eb080304eb080084
:10152400384413f8012b0a708342fad10023099a34
:1015340013702b6a1b1b2b62a3e00aebc00acaf8c8
:1015440008402a6a121b2a62012209990a7006f5c8
:101554008051421e47441f3301eb03139f6001eb8c
:101564000211c1f80c425a7942f006025a711a79f2
:1015740042f008021a711a796ff382021a711a7909
:1015840069f307121a711a7942f002021a711a7970
:1015940042f001021a7174e04a46002103f042fb52
:1015a4000346f8b9286a06f5805109f1080c4fea98
:1015b4008c0c01eb0919b9f80841c4f30d0454b1ba
:1015c4000023384403f0030262448a5cd2b2c2545a
:1015d40001339c42f6d10023099a13702b6a2344e9
:1015e4002b624ee006f5805101eb0912b2f8084176
:1015f400a4b20aebc00acaf80840286a02192a628f
:101604000122099e32705e1e2a6802441f3301ebd8
:1016140003139a6001eb0611c1f80c425a7942f0a7
:1016240006025a711a7942f008021a711a796ff394
:1016340082021a711a7969f307121a711a796ff30f
:1016440041021a711a7942f001021a7119e0286aea
:1016540006f5805306f58151b3f80841c4f30d042f
:101664004cb10023384403f003028a5cd2b2c25462
:1016740001339c42f7d10023099a13702b6a234447
:081684002b62a0b2bde8f08763
:020000040000fa
:020000040c00ee
:10168c002de9f84381460e4698469500284602f00f
:10169c0051fb00285dd00746542002f04bfb04465a
:1016ac00002853d05422002103f036ff27632a462a
:1016bc00a521384603f030ff043d236b1d4425f073
:1016cc0007058eb1337884f8343053b1334604f1c6
:1016dc0034010f3613f8012f01f8012f0ab1b34270
:1016ec00f8d1002384f84330089b042b28bf042333
:1016fc001f46e3626364261d304603f07eff04f14f
:10170c00180003f07aff2461c7f10503a36164623a
:10171c0042464946284603f0b7fb2060099b03b1bb
:10172c001c6003f0e3fc424a136801331360414b25
:10173c001b6893b1404b1b68abb93e4b1b68da6a14
:10174c00e36a9a420fd83b4b1c600ce0384601f020
:10175c0056ff4ff0ff30bde8f883364b1c60344b1e
:10176c001b68012b36d0354a136801331360e36aca
:10177c003349086801229a4002430a60314a03eb5c
:10178c00830302eb83035b68a3609968e1604e609e
:10179c009e60e06a81000b189b00d51865610144be
:1017ac0052f821100131d15003f0a2fe224b1b68dc
:1017bc00002b39d01f4b1b68da6ae36a9a4235d288
:1017cc00214b4ff080521a60bff34f8fbff36f8fd6
:1017dc000120c0e71b4d284603f042fe05f1140022
:1017ec0003f03efe05f1280003f03afe05f13c0043
:1017fc0003f036fe05f1500003f032fe134f38466d
:10180c0003f02efe124d284603f02afe114803f079
:10181c0027fe114803f024fe104803f021fe104b64
:10182c001f60104b1d609ee7012094e7012092e79a
:10183c0064a9022094a8022088a9022070a9022081
:10184c0074a9022068a7022004ed00e0e4a802209d
:10185c00f8a802200ca9022034a9022020a90220f9
:08186c005ca9022060a9022022
:020000040000fa
:020000040c00ee
:10187400f8b5431e13f1030f00f2c8800378002b60
:1018840000f0c480c46894f8543023b994f85630f6
:10189400002b00f0bb8094f86a50002d40f0b68015
:1018a400276d6378002b4ad02e46a378002b4cd0aa
:1018b40007f5805253786ff38613537094f85430bd
:1018c40013b9d3801381d372d38803f47f43d380b5
:1018d400138903f47f43138192f8023103f059030f
:1018e40082f8023192f8023113f0010f33d192f8e9
:1018f400063113f0010f35d192f8063103f0b0032d
:1019040082f8063192f8123103f0590382f8123149
:1019140092f8123113f0010f2bd192f8163113f013
:10192400010f2dd192f8163103f0b00382f816316d
:1019340092f80032002304f10c079c4632e0b4f91b
:10194400580002f0adff0646afe7b4f95a0002f0c2
:10195400a7ff0546ace792f8023143f0080382f88a
:101964000231c4e792f8063143f0100382f80631dd
:10197400c2e792f8123143f0080382f81231cce73f
:1019840092f8163143f0100382f81631cae703f1d6
:10199400200102eb0111497911f0010f09d1013342
:1019a400082b0fd017f833100029f0d007f833c0f4
:1019b400ede703f1200102eb011148796ff3000018
:1019c4004871ece7b4f95830002b09db5a0903f0ed
:1019d4001f03012101fa03f360321b4941f822304d
:1019e400b4f95a30002b09db5a0903f01f03012113
:1019f40001fa03f36032144941f822306378012b71
:101a040000d026b9a378012b00d075b9f8bdb4f97c
:101a14005830002bf6db590903f01f03012202faa8
:101a240003f3094a42f82130ece7b4f95a30002ba9
:101a3400ecdb590903f01f03012202fa03f3024a03
:0c1a440042f82130e2e700bf00e100e0c2
:020000040000fa
:020000040c00ee
:101a5000431e13f1030f00f2d6802de9f04f85b03d
:101a600090f800a0baf1000f00f0d080c468236d98
:101a70000393276e01f00f0b4ffa81f94fead978e3
:101a800001f00e05102918bf002d14bf01250025f7
:101a900040f0bf8001916678aeb9a37802932bb174
:101aa000b4f9580002f0fefe02900ee04ff0ff3154
:101ab00004f15c0003f0f4fb012840f0ad8066788f
:101ac0001eb95646ece72e460295a3783bb3019b20
:101ad000102b2ad008eb4b0303eb430307eb8307e0
:101ae000fb7913f0010f09d0ba79002a42d123f013
:101af0000103fb71fb7c23f00103fb746378012b72
:101b000002d0029b002b5cd1a378012b01d0002dc9
:101b100065d1002e71d1002005b0bde8f08fb4f979
:101b20005a0002f0bffe0546d1e7204603f004fd4f
:101b30004021204601f00cfd039b03f58053da8819
:101b400002f47f42da801a8902f47f421a81fb791b
:101b500023f00103fb71fb7c23f00103fb74fb7f8b
:101b600023f00103fb7797f82b3023f0010387f86c
:101b70002b30c3e723f00103fb71ba883989204673
:101b800002f047fbb9f1000f0ddb039b03f5805317
:101b90001989012202fa0bfb5ffa8bfb21ea0b0b7e
:101ba000a3f808b0aae7039b03f58051ca88012374
:101bb00003fa0bfb5ffa8bfb22ea0b0ba1f806b0d2
:101bc0009ce7b4f95830002b9edb590903f01f0342
:101bd000012202fa03f3124a42f8213094e7b4f9e1
:101be0005a30002b95db590903f01f03012202fa3a
:101bf00003f30b4a42f821308be704f15c0003f059
:101c000045fa002088e76ff07c0070476ff07c0099
:101c100082e76ff07b007fe76ff07e007ce700bf1c
:041c200000e100e0ff
:020000040000fa
:020000040c00ee
:101c240011f00e0f40f0b9802de9f04f83b001f0b0
:101c34000f0b431e13f1030f00f2b2800678002e3f
:101c440000f0b1800191c468276d0beb4b05206e49
:101c540000ebc50594f80180b8f1000f1ad194f88f
:101c64000290b9f1000f05d0b4f9580002f018fe43
:101c7400814612e04ff0ff3104f15c0003f00efbeb
:101c8400012840f0938094f80180b8f1000f04d14a
:101c9400b046e9e74ff00008c146a37883b34ff09c
:101ca400000abbf1000f31d09df90460002e49db1e
:101cb40007eb0b1707f58857bb7943f02003bb717b
:101cc400002eb4bf0c2000202844c37943f0020343
:101cd400c3716ff0020103f0b3f96378012b02d0f2
:101ce400b9f1000f37d1a378012b02d0baf1000f5c
:101cf4003fd1b8f1000f4ad1002003b0bde8f08f06
:101d0400b4f95a0002f0ccfd8246cae707f58057c1
:101d140097f8023143f0200387f80231eb7943f05e
:101d24000203eb716ff00201284603f089f9eb7ca2
:101d340043f00203eb746ff0020105f10c0003f0b1
:101d44007ff9cae707eb0b1707f58857bb7843f011
:101d54001003bb70b4e7b4f95830002bc3db590946
:101d640003f01f03012202fa03f3124a42f821305e
:101d7400b9e7b4f95a30002bbbdb590903f01f0350
:101d8400012202fa03f30b4a42f82130b1e704f1cd
:101d94005c0003f079f90020afe76ff07b00704737
:101da4006ff07c00a9e76ff07c00a6e76ff07e007f
:081db400a3e700bf00e100e01d
:020000040000fa
:020000040c00ee
:101dbc002de9f84f584b1b68002b40f0a680574b71
:101dcc001c6801341c60b4b1554b1b68a3421fd96d
:101ddc000020544b1b68db6a03eb8303524a52f816
:101dec002330022b28bf0120504b1b68002b18bf3f
:101dfc000120bde8f88f4e4a11684e4b18681060f0
:101e0c0019604d4a13680133136003f07bf8dbe76c
:101e1c000020474d8346494e4ff0010c424adff8f3
:101e2c00048143e03e4b4ff0ff321a60d1e73c4b4c
:101e3c001960cee7d968c9f804104ee0196ac9f8e0
:101e4c000410c3f828b0d9f800100139c9f80010f3
:101e5c00d96ad6f800a00cfa01f949ea0a09c6f8c1
:101e6c00009001eb810102eb810149689960d1f886
:101e7c000890c3f80c90c9f804e0c1f808e0d3f856
:101e8c002c904fea890101eb090e02eb8e0ac3f884
:101e9c0014a052f82e10013142f82e10d8f800e0a0
:101eac00d96adef82c30994288bf01202b681b6858
:101ebc00002bb7d02b68db68db6859688c42b6d333
:101ecc00d3f81490d9689f68b9609f684f6003f18c
:101edc00040ed9f804107145acd0c3f814b0d9f87d
:101eec0000100139c9f80010d3f82890b9f1000f8f
:101efc00aed0196adf69b960df694f6003f1180a67
:101f0c00d9f8041051459cd198e70d4a1368013358
:101f1c00136000206de700bf6ca902208ca9022081
:101f2c007ca9022094a8022068a7022090a9022074
:101f3c005ca9022060a9022080a9022074a90220b9
:041f4c0084a9022042
:020000040000fa
:020000040c00ee
:101f500011f00e0f40f0a8802de9f04701f00f07b7
:101f6000431e13f1030f00f2a28090f80080b8f135
:101f7000000f00f09f80002f00f09f808946c4680a
:101f8000256d6678beb994f802a0baf1000f05d0ad
:101f9000b4f9580002f086fc82460ee04ff0ff31a3
:101fa00004f15c0003f07cf9012840f08980667838
:101fb0001eb94646ece70026b246a378002b38d07f
:101fc0004ff000084ffa89f1002938db05f58055fc
:101fd00005eb071292f8063103f09f0382f80631f1
:101fe00007f1100305eb0315ab7943f08003ab71e8
:101ff00007eb47000029b4bf0c23002303ebc00309
:10200000206e1844c37923f00203c3716ff00301fb
:1020100003f018f86378012b02d0baf1000f21d138
:10202000a378012b02d0b8f1000f29d1b6bb002054
:1020300044e0b4f95a0002f035fc8046c2e705f5e9
:10204000805505eb071292f8023103f0cf0382f8b6
:10205000023107f1100305eb0315ab7843f04003a1
:10206000ab70c5e7b4f95830002bd9db590903f040
:102070001f03012202fa03f3134a42f82130cfe78b
:10208000b4f95a30002bd1db590903f01f030122a8
:1020900002fa03f30c4a42f82130c7e704f15c006e
:1020a00002f0f4ff002009e06ff07b0070476ff052
:1020b0007c0003e06ff07c0000e00020bde8f087ca
:0c20c0006ff07e00fae700bf00e100e0d6
:020000040000fa
:020000040c00ee
:1020cc002de9f04703f012f8514b1a68013a1a60e7
:1020dc001b68002b40f095804e4b1b684bb90024bd
:1020ec0090e0196acef8041020e0d968cef80410fc
:1020fc002fe0002348481d46484c0126484adff88b
:10210c002ca1dff824c10168002957d0c368db6813
:10211c00d3f828e0d9691f6a8f60196adf694f60ac
:10212c0003f11808def804104145dad09d62def8a0
:10213c0000100139cef80010d3f814e0d9689f686c
:10214c00b9609f684f6003f10408def80410414544
:10215c00cbd05d61def800100139cef80010d96ae1
:10216c00d4f8009006fa01fe4eea090ec4f800e01d
:10217c0001eb810102eb810149689960d1f808e01b
:10218c00c3f80ce0cef80480c1f80880d3f82ce03a
:10219c004fea8e0101eb0e0802eb8809c3f814908c
:1021ac0052f82810013142f82810daf80010c96ae8
:1021bc00df6a8f42a7d9ccf80060a4e70bb102f01c
:1021cc00a1fe184b1c686cb1174e012501e0013cb7
:1021dc0005d0fff7edfd0028f9d03560f7e7114b7e
:1021ec0000221a60104b1c6864b1104b1b68104b1a
:1021fc004ff080521a60bff34f8fbff36f8f0124e3
:10220c0000e0002403f074f92046bde8f08700bf1d
:10221c006ca9022064a902200ca9022074a9022036
:10222c0068a7022084a9022090a9022094a8022069
:04223c0004ed00e0cd
:020000040000fa
:020000040c00ee
:102240002de9f04184b0044601914ff00008464664
:102250004546504f49e0013ba36323684bb12369d6
:102260005bb903f04bf94ff00108404604b0bde8fc
:10227000f08103f02ff9a060f1e704f1100000f005
:10228000fbfe0028edd0434b4ff080521a60bff3a5
:102290004f8fbff36f8fe4e703f030f94ff0000882
:1022a000e3e702a803f0aaf829e084f8445032e0fa
:1022b00084f8455035e002f01fffa06801f086f871
:1022c000804603f01bf93ce0204601f0fffdfff7dc
:1022d000fdfe09e0204601f0f9fdfff7f7fe20467c
:1022e00003f0cff8002840d1012602f005ffa36bd0
:1022f000002bb0d1019b002bced0002ed1d003f00b
:10230000fdf803f04df902f0f7fe94f844305bb2ab
:10231000b3f1ff3fc9d094f845305bb2b3f1ff3f52
:10232000c6d003f0ebf801a902a802f0ddf80028fe
:10233000d0d1204603f0a5f80028c5d02368002b93
:10234000b9d0019904f1240002f0f4ff204601f015
:10235000bdfdfff7bbfe0028c6d14ff080533b60a8
:10236000bff34f8fbff36f8fbee7b8f1000f3ff49d
:102370007caf02f0c1fe616a19b1236b1968c1f12b
:102380000501a06801f0e4fa03f0b8f84ff0000886
:082390006be700bf04ed00e063
:020000040000fa
:020000040c00ee
:1023980011f00e0f40f091802de9f84f01f00f0574
:1023a8004ffa81f8431e13f1030f00f2898090f869
:1023b8000090b9f1000f00f08680c468d4f850b0de
:1023c80005eb4507b8f1000fb4bf0c22002202eb61
:1023d800c703276e1f446678b6b994f802a0baf10d
:1023e800000f05d0b4f9580002f058fa82460de003
:1023f8004ff0ff3104f15c0002f04eff012865d177
:1024080066781eb94e46ede70026b246a378d3b1ea
:102418004ff000096ff00101384602f00ffe15b1c8
:10242800b8f1000f15db6378012b02d0baf1000f69
:1024380021d1a378012b02d0b9f1000f29d1b6bb65
:102448000020bde8f88fb4f95a0002f027fa814657
:10245800e0e70bf5805b05f110030beb03139b78aa
:1024680013f0010fdfd010350beb0515ab7843f0f7
:102478000803ab70d7e7b4f95830002bd9db5909fa
:1024880003f01f03012202fa03f3124a42f8213033
:10249800cfe7b4f95a30002bd1db590903f01f03f9
:1024a800012202fa03f30b4a42f82130c7e704f18c
:1024b8005c0002f0e7fd0020c3e76ff07b00704787
:1024c8006ff07c00bde76ff07c00bae76ff07e002c
:0824d800b7e700bf00e100e0de
:020000040000fa
:020000040c00ee
:1024e00010b582b0474b1b79012b16d05ab21ab1e6
:1024f000022b5ad002b010bd0321002002f00cfbc9
:10250000404b1860b0f1ff3ff4d000223e4902f08a
:10251000ebfc3c4b01221a71ece73a4b5b79002b48
:10252000e8d0384b186802f0c1ff02281ed1354ba5
:1025300040229a84334b597d186802f0edfe00b3b7
:10254000304b197d186802f0e7fe20b32d4c0123b3
:102550006372214651f8100b4ff4007300932b4b1c
:10256000627d00f0a5fb02232371c3e7254b1868a9
:1025700002f09cff0128ddd1224b4ff400729a84b7
:10258000d8e72048838c00930223427d0021006815
:1025900002f021fdd4e71b48838c00930223027dc7
:1025a0000021006802f017fdd0e7164b5b79d3b12c
:1025b000144b1b7a002b9dd1154a02f8013f0133c1
:1025c000b3f5007ff9d10f4a01231372114651f878
:1025d0000c0b022301934ff4007300930d4b127dfb
:1025e00000f0defa86e7074c01232371617d206845
:1025f00002f065fe217d206802f061fe0023637217
:10260000237277e7000202202d32000c40020220e4
:08261000ffff01200000022081
:020000040000fa
:020000040c00ee
:1026180070b582b004460d4649784b1e082b00f26f
:102628008480dfe803f0618268820582828212007a
:10263800037843f080030370ab7880f8ac30002156
:10264800204602f04df902b070bd6b8823b9c278fc
:1026580002f00702052a2fd094f8ad20dbb29a4287
:1026680065d094f8ae2082b1d4f8b060331f013a37
:10267800d2b206eb820653f8042f5079a978884223
:1026880008bfc4f8b420b342f5d16b8884f8ad30e4
:10269800208b02f0a3fd204601f0effde378052230
:1026a80062f30203e3706b888df8043094f8dd3030
:1026b800012b0fd00021c3e70b2380f8b83001f0bd
:1026c80095ff002184f8ad10e378042262f3020339
:1026d800e370b5e7d4f8e0305bb3d4f8e42001a99f
:1026e8000a2098470021abe76b88012ba8d100216d
:1026f80080f8c010a4e76b88012b03d0022b05d00b
:1027080001219de780f8c030002199e7037803f0a4
:102718000e03022b01d0012192e76b798370437875
:1027280043f00103437000218ae7012188e7002173
:0627380086e7002184e7a2
:020000040000fa
:020000040c00ee
:02273e007047e2
:020000040000fa
:020000040c00ee
:102740002de9f04385b00446884601921d460027d6
:10275000434e3ae02a464146204601f0e9fc636ace
:1027600073b938b13e4b4ff080521a60bff34f8fb0
:10277000bff36f8f02f0c2fe012005b0bde8f08309
:1027800004f1240000f078fc0028f3d0344b4ff023
:1027900080521a60bff34f8fbff36f8feae702f0ea
:1027a000adfe0020e9e702a802f028fe1ae00023af
:1027b00084f8443022e0002384f8453024e02046a9
:1027c00001f084fbfff782fc012702f095fca26b6d
:1027d000e36b9a42bed3022dbcd0019b002bded00e
:1027e000002fe0d002f08afe02f0dafe02f084fc54
:1027f00094f844305bb2b3f1ff3fd8d094f8453041
:102800005bb2b3f1ff3fd6d002f078fe01a902a877
:1028100001f06afee0b902f06ffcd4f83890e76b83
:1028200002f06cfeb945cad1019904f1100002f022
:1028300081fd204601f04afbfff748fc0028c3d188
:102840004ff080533360bff34f8fbff36f8fbbe701
:10285000204601f03bfbfff739fc00208de700bf6d
:0428600004ed00e0a3
:020000040000fa
:020000040c00ee
:10286400f8b590f90830002b40f3858016460d46e4
:1028740004468b1e072b7cd8dfe803f00461667bdb
:102884007b6b707643786ff382034370d0f8f0303b
:102894001b6c0021c0699847d4f8f0301b6c802170
:1028a400e0699847204601f0a3fed4f8f0305b6a53
:1028b4001021e0699847d4f8f0301f6a40230022c1
:1028c4008021e069b84794f99030022b07dcd4f8f2
:1028d400f0309b6b04f188020021e0699847e378ab
:1028e400032262f30203e370d4f8f0301b69e06959
:1028f4009847237860f343032370e26803f00e03e0
:10290400022b15d09368c4f8b030137984f8ae3034
:10291400002384f8ad3094f8dd30012b2bd1d4f8aa
:10292400e03043b3d4f8e42031462846984722e007
:102934005369c4f8b030137c84f8ae30e8e74378c8
:102944006ff382034370e6e7437843f00403437074
:10295400e1e743786ff3820343700ce0c37801220c
:1029640062f30203c370d6e7c3786ff30203c37044
:08297400d1e70029cfd1f8bd25
:020000040000fa
:020000040c00ee
:10297c002de9f041c268037803f00e03022b59d005
:10298c008b78147c9c4253d95269002a50d052f84f
:10299c002360002e4cd004467588cb889d4228bffe
:1029ac001d460123c0f84831402d4dd9403d02232e
:1029bc00c0f8483100f1f6083346414606f1400ea6
:1029cc00d3f800c05f689868da68c1f800c04f603f
:1029dc008860ca60103310317345f1d1072384f835
:1029ec00f73005f03f03002b0cbf02230123636774
:1029fc00c4f838814023c4f83c310023c4f8443176
:102a0c00c4f84c41d4f8f0309b6b04f59c728021d7
:102a1c00e069984740366666a566194b2367a4673c
:102a2c00d4f8f0309b6b04f164028021e069984784
:102a3c00bde8f0818b7814799c42f9d99268002a10
:102a4c00f6d052f82360a4e700f1f6072a46314687
:102a5c00384602f077fc072384f8f730c4f8387155
:102a6c00c4f83c51064bc4f84431c4f84c41d4f87a
:102a7c00f0309b6b04f59c728021e0699847d7e796
:042a8c00f142000c07
:020000040000fa
:020000040c00ee
:102a900008b53c4b98473c4b9847eff3108172b612
:102aa0003a4ad2f8883043f47003c2f88830bff352
:102ab0004f8fbff36f8f01b962b6bff34f8fbff374
:102ac0006f8f324c0723c4f89032c4f89432bff3ae
:102ad0004f8fbff36f8f02f03bf82d4b23f07f0336
:102ae000a3602c4b9847636913f4003f12d1bff3e6
:102af0004f8fbff36f8f0022c4f85022bff34f8f68
:102b0000bff36f8f626942f400326261bff34f8f8f
:102b1000bff36f8f1d4b5b6913f4803f29d11b4bb3
:102b20000022c3f88420bff34f8fd3f88030c3f363
:102b3000c906c3f34e335a0143f6e075134802ea5f
:102b40000504334644ea8371c0f86012013bb3f1d7
:102b5000ff3ff7d1203a12f1200ff0d1bff34f8f92
:102b60000a4a536943f480335361bff34f8fbff375
:102b70006f8f094b9847094b984702f019fd00be2b
:102b8000fee700bf7730000c7730000c00ed00e06e
:102b9000000000004945000c7730000c7730000c35
:020000040000fa
:020000040c00ee
:102ba0002de9f0470e46904699464ff0ff330b60f3
:102bb00002f00cfc00286bd00446078b394b03eb6a
:102bc000c703da885b889a4265d200f1ec054ff0c2
:102bd000ff31284602f064fb01285fd1324b93f9a4
:102be0000830012b10dd304b93f92c30012b0cdd1c
:102bf000284602f04bfa01280cbf6ff07a046ff000
:102c00005f042046bde8f0870020274bc200111862
:102c1000890003eb010a43f801900899caf80410ef
:102c20009df82410caf810102049caf80c10caf8f0
:102c30001440c6f800a0012002f098fb194b03ebea
:102c4000c703da880132da800146012002f003fc72
:102c500052464146204602f084fa044638b92846d6
:102c600002f014fa012818bf6ff05f04c9e70120d1
:102c700002f07cfb0b4b03ebc707fb88013bfb809f
:102c80000146012002f0e7fb4ff0ff333360e6e737
:102c90006ff07b04b5e76ff07a04b2e76ff05f0482
:102ca000afe700bf54a902201ca80220bd43000cbe
:020000040000fa
:020000040c00ee
:102cb0002de9f0470f46904699464ff0ff330b60e1
:102cc00002f084fb002868d00446058b374b03ebe9
:102cd000c502928833f835309a4261d200f1ec0691
:102ce0004ff0ff31304602f0dbfa01285bd1304b68
:102cf00093f90830012b10dd2d4b93f92c30012b6b
:102d00000cdd304602f0c2f901280cbf6ff07a04e6
:102d10006ff05f042046bde8f0870020244bc2001e
:102d20001118890003eb010a43f801900899caf8c9
:102d300004102049caf80c10caf81440c7f800a0c3
:102d4000012002f013fb194b03ebc5039a880132f3
:102d50009a800146012002f07efb52464146204601
:102d600002f0fff9044638b9304602f08ff9012825
:102d700018bf6ff05f04cde7012002f0f7fa0b4bac
:102d800003ebc505ab88013bab800146012002f097
:102d900062fb4ff0ff333b60e6e76ff07b04b9e77f
:102da0006ff07a04b6e76ff05f04b3e754a902202e
:082db0001ca802202144000cc4
:020000040000fa
:020000040c00ee
:102db80070b582b000238df807300e2901d002b01b
:102dc80070bd14460646364b4ff4ae7505fb00350c
:102dd800d388a5f8e830d5f8f0301b6c8021e86975
:102de8009847237803f01f03032be8d8dfe803f0a4
:102df80002222852237813f060020cd113f0800fbe
:102e080004d121462846fff703fcd8e72146284687
:102e180000f0bcf8d3e7402a06d0202acfd1012100
:102e2800284601f05dfdcae722460e21284601f03a
:102e3800d5ffc4e722462179284601f073fcbee796
:102e4800217951b9237813f0600f1cd122469df8df
:102e58000710284601f02cf9b1e70df107022846c2
:102e680001f01cfe0e4b4ff4ae7202fb0636f378ef
:102e780003f00703052b01d10028e3d101212846df
:102e880001f02efd9be722469df80710284601f029
:102e980049fc94e722460e21284601f09fff8ee761
:042ea8006ca50220f3
:020000040000fa
:020000040c00ee
:102eac0038b590f9083013f1020f3cd0054644694f
:102ebc00022b07d04268002a3cd1002184f8c410b0
:102ecc000f201ae094f8c4305bb1d4f8d83043b179
:102edc00d4f8e050ab4227d000220c21b4f8d0003b
:102eec009847012384f8c430264bc4f8d830238b80
:102efc00a4f8d03004f124010e20d4f8d830d4f842
:102f0c00e050ab423ad00a460146b4f8d00098479c
:102f1c004023c4f88c30d4f8f0309b6b04f1880259
:102f2c000021e069984738bdd4f8e42000210c203a
:102f3c00a847d6e794f8c430ebb1d4f8c830d4f82d
:102f4c00cc108b4202d300210d20d6e7d4f8d4004c
:102f5c0004f12401184402f0f5f9d4f8c8006b68a8
:102f6c001844c4f8c800d4f8cc300021984234bfbf
:102f7c0001200d20c1e700210120bee7d4f8e42098
:082f8c00a847c5e7b92d000cb0
:020000040000fa
:020000040c00ee
:102f940030b583b004460d46002301934b78062bcd
:102fa40012d0082b54d0002b37d1a0f8bc300378b2
:102fb40003f0010390f8c02062f34103024602f8d3
:102fc400bc3f0192022047e0c068cb78013b062b4e
:102fd4004dd8dfe803f00410394c4c2b1d00237846
:102fe40003f00e03022b0cbfc36803680193122085
:102ff400019991bb11e08b7894f8ae209a420cd9d8
:10300400d4f8b02052f823303bb10193588823e020
:10301400237803f07003102b04d00121204601f023
:1030240061fc22e02046fff7a7fc1ee0237803f0b2
:103034007002102af1d103f00e03022b0cbf036ab5
:10304400436a01930a20d3e701aa00f0b9ffcfe74e
:1030540000f1ad03019301200199ea88824228bf5f
:10306400024692b2204601f080fc03b030bd00203d
:02307400bee7b5
:020000040000fa
:020000040c00ee
:023076007047a1
:020000040000fa
:020000040c00ee
:1030780030b4c368db689a6ad869196a8160d8690c
:10308800486003f11800516881423ed000219962de
:10309800116801391160274a1268002a3bd15a6920
:1030a8009868d968816098684860181d516881429d
:1030b8002ed000215961116801391160da6a1e4c5d
:1030c800256801219140294321601c4902eb8202b5
:1030d80001eb820252689a609468dc6060609060dc
:1030e800dc6aa000021992008d185d61204451f835
:1030f800200001308850124a1168da6acb6a9a4275
:1031080015d901200f4b186012e0196a5160bde70c
:10311800d9685160cde70c4a5168d9618c681c6246
:10312800606088609a62116801311160e3e70020ed
:1031380030bc70476ca9022074a9022068a702203d
:0c31480094a8022090a902200ca90220eb
:020000040000fa
:020000040c00ee
:1031540000295dd000285bd170b5cd69002d5ad00f
:103164002e4c012222722083e37860f30203e37081
:10317400e5608b8a23828b696361237891f8205000
:1031840065f3061384f8c000dbb2134360f3c7137e
:103194002370637804f12405c4f888504025c4f8ea
:1031a4008c50c4f8982084f890001d4dc4f89450b5
:1031b400c4f89c401b4d2567a467626703f0fe03b7
:1031c40060f38203637084f8dc008b6ac4f8f03027
:1031d400cb8ca4f8f4308a8c498c02f001f9204697
:1031e40001f0eeff6569238a83b100240b4e05e0ec
:1031f40010350134e4b2338aa34207d9eb68002bbb
:10320400f6d01b69002bf3d09847f1e7002070bd7e
:103214004ff0ff3070474ff0ff30f8e76ca5022005
:08322400ad2e000cf142000c7c
:020000040000fa
:020000040c00ee
:10322c0008b502380f2811d8dfe800f008531d103c
:10323c00101023281108101032104b4f2a4b4ff44a
:10324c000012c3f89820294b00225a7108bd0b7844
:10325c00012bfbd1244b4ff40012c3f89420234bc9
:10326c0001225a71f2e7204b4ff40012c3f8982058
:10327c00ece71e4b186801f08fffe7e71b4b186853
:10328c0001f090fe184b4ff40012c3f89420dde7c8
:10329c004b780b2b07d00a2b0bd00121134b186842
:1032ac0001f01cfbd2e70021104b186801f016fb53
:1032bc00cce70f4b0122194653f8160c01f051fbc9
:1032cc00c4e70a4b00225a72c0e7084b00221a725c
:1032dc00bce7064b5b79002bb8d0034b4ff40012c4
:1032ec00c3f89420b2e700bf00008444000202201f
:0432fc001602022094
:020000040000fa
:020000040c00ee
:10330000f0b48eb006460f466c462f4d0fcd0fc45d
:103310000fcd0fc40fcd0fc495e8030044f8040b84
:103320002170731e13f1030f39d83378002b39d075
:10333000f3681a6d042f0cd002f58052d37b13f082
:103340007f0f32d1013f032f34d8dfe807f022147a
:10335000361602f580520df1ff330da813f8011f48
:1033600082f820108342f9d1d37b13f07f0f04d071
:103370006ff07c001be0042120e0d37b43f00803c6
:10338000d37392f8023143f0020382f80231002035
:103390000de0d37b43f00203d373002007e06ff00e
:1033a0007c0004e06ff07c0001e06ff07c000eb068
:1033b000f0bc70476ff07c00f9e70121d37b0b4331
:0c33c000d3730020f3e700bfe04a000ccc
:020000040000fa
:020000040c00ee
:1033cc00002856d070b50446c26a2b490968c96af0
:1033dc008a4245d28169002905db27490968c96af7
:1033ec00c1f10501816102eb8202244901eb8202e9
:1033fc006169914205d0204a1268d26ae2620120ca
:10340c0036e0251d284601f04dfe38b91c490b68e5
:10341c00e06a0122824023ea02030b60164b1b6810
:10342c00db6ae36216490e68012000fa03f23243ac
:10343c000a60124a03eb830302eb83035b68a3600d
:10344c009968e1604d609d60e56aa9004b199b008d
:10345c00d6186661294452f821100144d15007e076
:10346c00054a1268406cd36a98422cbf0020012098
:10347c0070bd0020704700bf94a8022068a70220ee
:04348c0074a90220fd
:020000040000fa
:020000040c00ee
:10349000f8b52d494c6ad1e90623561c43f10007c3
:1034a000c1e90667002c4dd091f82030013381f836
:1034b0002030a36823b1a368013ba3604c6afcb130
:1034c000a368ebb9012500271f4e0ae0e06901f06f
:1034d000cbfae3680bb120699847746a84b1a3689a
:1034e00073b925756575a37813b9e368002bedd121
:1034f000204601f0f5f8a378002bead16770e8e7e1
:10350000124d00242e4603e001342035052c13d043
:1035100006eb44135b7d002bf6d006eb4413002230
:103520005a75ab78012befd16b6806eb44118b60b9
:10353000284600f049fce7e7034a92f82030013bb7
:1035400082f82030f8bd00bf98a80220c8a602204b
:020000040000fa
:020000040c00ee
:103550002de9f043002951d0cc0800f1680900277b
:10356000bc46b8463a4623e000220133202b18d04f
:1035700025fa03f111f0010ff6d10ab91f46b4463e
:1035800001329442f1d1bcf1230f33d80cf11b0668
:1035900000eb860600f1fc0e384601254ff00008ce
:1035a00010e0a242efd008f10108b8f1240f29d0b1
:1035b00059f8045f00234646dae7dcb1043640469a
:1035c000b64517d01f28f8d8314605fa00f23368ff
:1035d00013433360631e0dd02044a0f120091c4624
:1035e000031ba145e9d005fa03f30a6813430b60f6
:1035f000013cf5d107eb4c1080b201e04ff6ff70b3
:0a360000bde8f0834ff6ff70fae713
:020000040000fa
:020000040c00ee
:02360a00704707
:020000040000fa
:020000040c00ee
:10360c002de9f04104460e46244b1d68244b1f68df
:10361c00244bd3f80080244b1868043001f042fd91
:10362c0048b9214b1a6821490b68d06a01228240a3
:10363c0023ea02030b60b4f1ff3f15d1a6b11c4a7b
:10364c005168194b1868816018688c68c4601868d8
:10365c00043060601868043088601b685a61136815
:10366c0001331360bde8f0812c440f4b1b685c6088
:10367c00a54206d90c4b19680431404601f01cfbdd
:10368c00f0e7094b19680431384601f015fb094b7a
:10369c001b68a342e6d9074b1c60e3e78ca9022008
:1036ac005ca9022060a9022094a8022074a902201f
:0836bc0020a902207ca90220d4
:020000040000fa
:020000040c00ee
:1036c400254b1b681bb1254b01221a60704710b5ae
:1036d400224b00221a60224b19681a681b68126870
:1036e4001b6b9a4204d90b6b1a68b2f1a53f23d025
:1036f4001b4b19681868343101f095fe194b1b688f
:10370400b3fa83f3dbb2c3f11f03174a9900c81855
:1037140002eb8000446864684460024608329442c4
:1037240017d003eb8303104a02eb83035b68da6868
:103734000b4b1a601b6810bd5a68b2f1a53fd7d174
:103744009a68b2f1a53fd3d1db68b3f1a53fcfd1dd
:10375400d4e7c1684160e4e76ca9022090a9022083
:0c37640094a8022074a9022068a702208b
:020000040000fa
:020000040c00ee
:10377000204b214a5a611a6912f0010ffbd01f4bee
:1037800001221a611e4ad36943f48023d361134690
:10379000da6812f4806ffbd0164b00221a640c21f9
:1037a0009964e1215964da669a6f12f0400ffbd1f7
:1037b000104b8322da64196c40f602220a431a6421
:1037c0001a6912f0807ffbd00e4b02221a619a68b0
:1037d00012f0010ffbd00c4b0c4a1a625a6812f01f
:1037e000040ffbd1084b0a4a5a625a6812f0080fbc
:1037f000fbd1704700000444020e00010020044485
:1038000000000244002005440000054406010100b8
:0438100006010200ab
:020000040000fa
:020000040c00ee
:1038140038b504464ff48e73214803fb040001239a
:103824004370056d90f8543013b3012b01d1fcf7ac
:10383400f5fb1b4a4ff48e7303fb0423b3f9583092
:10384400002b09db5a0903f01f03012101fa03f3da
:103854006032144941f822306b6943f004036b6110
:103864000f4b4ff48e7202fb04340023637038bd97
:103874000b4a4ff48e7303fb04235a6d0a4b134017
:103884000a4a9342d5d0064a4ff48e7303fb0423ad
:1038940093f85630002bccd0fcf7c0fbc9e700bf2f
:1038a4004004022000e100e000ffff0000010100ed
:020000040000fa
:020000040c00ee
:1038b400b0f1ff3f46d0244a4ff4ae7303fb00231c
:1038c40093f90830002b3ddd70b504464ff4ae7318
:1038d40003fb002393f8dc307bb1012b22d14ff49e
:1038e400ae7303fb00231e8ae6b117484ff4ae7390
:1038f40003fb0400456900241be0134b4ff4ae7531
:1039040005fb0035d5f8f0301b680f21b5f8f4003d
:103914009847e861b0f1ff3f04d0012385f8dc301b
:1039240002232b7270bd10350134e4b2a3b2b3424a
:10393400f8d2eb68002bf6d0db68002bf3d0a88814
:0c3944009847f0e7704700bf6ca5022018
:020000040000fa
:020000040c00ee
:10395000002846d038b50446426c914238bf114623
:10396000c26a8a4202d0806c012800d038bde16270
:10397000a069002802dbc1f10501a16102eb82020e
:10398000184901eb820261699142efd1251d284659
:1039900001f08efb38b914490b68e06a01228240bd
:1039a00023ea02030b60e36a0f49086801229a4088
:1039b00002430a600b4a03eb830302eb83035b6859
:1039c000a3609968e1604d609d60e06a81000b181a
:1039d0009b00d5186561014452f821100131d15086
:0c39e000c4e7704768a7022074a9022009
:020000040000fa
:020000040c00ee
:1039ec0010b500283ed1214b93f94c30022b03d05b
:1039fc004ff0ff34204610bd4ff0ff311c4801f052
:103a0c0049fc012802d04ff0ff34f3e7174b93f831
:103a1c000c312bb14ff0ff34154801f031fbe9e7c5
:103a2c00124b012283f80c21c3f818310022c3f881
:103a3c00102103f5867493f85430012b0ad0022b15
:103a4c00ead10a4b0022c3f8fc2003f58672c3f8b6
:103a5c000021e1e7a4f58673c3f8fc400022c3f80b
:103a6c000021d9e74ff0ff34c4e700bf4004022027
:043a7c009c04022084
:020000040000fa
:020000040c00ee
:103a8000002836d138b51e4b1b78002b34d10c469c
:103a90004d681c4b002d08bf1d461b4801f050fb14
:103aa000012802d04ff0ff3028e0154b01221a7098
:103ab00083f84c201d65e17b83f85410a17b83f8cb
:103ac0004d100020c3f8fc00c3f800010f4919662f
:103ad000b4f90a10a3f85810b4f90c10a3f85a104e
:103ae00083f8690083f8660083f8670083f868202c
:103af00004e04ff0ff3070474ff0ff3038bd00bf9b
:103b0000400402200000014f9c04022064a802200f
:020000040000fa
:020000040c00ee
:103b100000283ed038b50446c36b002b3bd0006c68
:103b2000a0fb03230bb1002036e00d4601f0e4fac0
:103b30002268216ce36b03fb01f3d018a060002026
:103b4000a06362605b1a1344e360ff2384f844308f
:103b500084f84530a5b923691bb901f0cffc0120d9
:103b60001ae004f11000fff787fa0028f5d00b4b9c
:103b70004ff080521a60bff34f8fbff36f8fece7a7
:103b800004f1100001f072fc04f1240001f06efc5d
:103b9000e3e700207047002038bd00bf04ed00e0df
:020000040000fa
:020000040c00ee
:103ba000036dda6912f0010f33d1002280f86a2028
:103bb00090f85420012a2dd9b0f95830002b09db98
:103bc0005a0903f01f03012101fa03f36032164979
:103bd00041f82230b0f95a30002b09db5a0903f0c2
:103be0001f03012101fa03f360320f4941f822302b
:103bf000036d03f5805390f84d105a7861f3451228
:103c00005a705a7842f040025a709a796ff3000263
:103c10009a71704703f580520021d18011810f21e4
:0c3c2000d1720c221a61c7e700e100e03d
:020000040000fa
:020000040c00ee
:103c2c0000b587b0002303930493059349228df8c4
:103c3c00082044228df809204c228df80a204522b8
:103c4c008df80b208df80c30124a019200938022d3
:103c5c0002a91148fdf714fd012815d14ff02003de
:103c6c0072b683f31188bff36f8fbff34f8f62b6b9
:103c7c000a4b4ff0ff321a60094b01221a60094bb4
:103c8c0000221a6000f098fd074b1b6807b05df826
:103c9c0004fb00bf78a90220394f000c7ca902203c
:0c3cac0088a902208ca90220f4a90220a3
:020000040000fa
:020000040c00ee
:103cb80000283bd070b50446826c013a8264c06a21
:103cc800616c884200d00ab1002070bd251d2846cd
:103cd80001f0eaf938b916490b68e06a0122824016
:103ce80023ea02030b60636ce362c3f10502a2617d
:103cf8000f490e68012000fa03f232430a600d4aa8
:103d080003eb830302eb83035b68a3609968e160bc
:103d18004d609d60e56aa9004b199b00d618666145
:103d2800294452f821100144d150cee700207047b1
:083d380074a9022068a7022013
:020000040000fa
:020000040c00ee
:103d400038b5044610f0070305d0c3f10803da4381
:103d5000824226d31c4401f023fc184b1b6873b12c
:103d60002cb3174b1b68e2439a420ed31c4449f60e
:103d7000f77294420cd9fef7a9f91ae000240f4a11
:103d8000104b23f007031360eae7fef79ff910e0fa
:103d90000a4a15681d440a4b1c60fef797f95db985
:103da00007e001f0fdfb054b1b68002be6d0fef79a
:103db0008df901f045fb0025284638bd94a9022065
:083dc00098a9022073050220fe
:020000040000fa
:020000040c00ee
:103dc80000283cd02de9f04186461d4b5a6ad0f8b0
:103dd8000880c2b1936844460025984518d300204e
:103de80000219368c01841f100019369abb1d3f881
:103df80008c010eb0c0641f10007bd4208bfb442f1
:103e08000bd31a46ede7c0f808800d4b586214e052
:103e18000b4b58628261002003e0cef81830c2f8dc
:103e280018e0a8eb0000cef80800def8183023b13f
:103e3800def808109a68521a9a60bde8f081704757
:043e480098a8022014
:020000040000fa
:020000040c00ee
:103e4c001c4bd96821f4e0610904090c1a4a0a4395
:103e5c00da60bff35f8f62b6e02183f82310174a54
:103e6c0082f80f134ff40040106082f810134ff4d7
:103e7c008030106082f811134ff40030106082f81b
:103e8c0012134ff48020106082f8d5134ff40011f8
:103e9c0091615a6a02435a625a6942f010025a619d
:103eac005a6a42f400325a625a6a42f480325a62b6
:103ebc00704700bf00ed00e00000fa0500e100e0f3
:020000040000fa
:020000040c00ee
:103ecc0070b5054601f012f995f8454064b2002c26
:103edc0011dd6b6a7bb105f1240606e001f07cfb79
:103eec00013c64b23cb16b6a2bb13046fff7bef8b3
:103efc000028f5d0f2e7ff2385f8453001f0f8faf9
:103f0c0001f0f4f895f8444064b2002c11dd2b69f3
:103f1c007bb105f1100606e001f05efb013c64b2da
:103f2c003cb12b692bb13046fff7a0f80028f5d037
:0e3f3c00f2e7ff2385f8443001f0dafa70bd99
:020000040000fa
:020000040c00ee
:103f4a0038b50546046d90f854307bb304f58053b8
:103f5a000022da801a810722da720c2323612046b2
:103f6a0000f0dffc2346226842f4007222602268d5
:103f7a0042f480722260226842f002022260da6908
:103f8a0012f0020ffbd19a6912f0020ffbd09a6964
:103f9a0012f0010ffbd041f22452a35843f002035e
:103faa00a35040212846fff7cefa38bd04f58053c6
:0a3fba000022da801a81da72d1e7e2
:020000040000fa
:020000040c00ee
:103fc400f0b58f78c669d6f800c09cf80030023b83
:103fd400dbb25d08012b08d9047e013cb4fbf5f487
:103fe400e4b2bc4203d20020f0bd0024f9e727b9b3
:103ff400c2f800c09cf80000f6e7b1f804e0a8b2eb
:104004000028f1d0bcf80230734512d00cf1020143
:104014000124631c9bb2a0420dd01c4631f8025f00
:104024007545f6d107fb03f356f82330136018786f
:0a403400dae70123f6e70020d6e7e3
:020000040000fa
:020000040c00ee
:02403e007047c9
:020000040000fa
:020000040c00ee
:1040400071b338b50d4640bb174801f079f8012827
:1040500002d04ff0ff3038bd2b68144c63604ff432
:104060000072e260b5f90420228100200021c4e939
:1040700006010025656284f820501b6829460c481b
:10408000984763685b689847a0222946094801f071
:1040900049fa022323702046dde74ff0ff30dae7cc
:1040a0004ff0ff30704700bfc0a8022098a8022040
:0840b0009134000cc8a60220a7
:020000040000fa
:020000040c00ee
:1040b80010b504461179537893b9a0f8bc30d0f8fc
:1040c800f0305b6bc069984794f8bc3060f300032c
:1040d800214601f8bc3f0222204600f044fc10bdf6
:1040e800012b07d0032b12d00c2bf8d1012100f0a3
:1040f800f7fbf4e75388002bf1d1d0f8f030db6af6
:10410800c06998470021204600f0eafbe7e753889a
:10411800002be4d1d0f8f0309b6ac06998470021a1
:08412800204600f0ddfbdae7a0
:020000040000fa
:020000040c00ee
:1041300070b504461646856b026c5ab903681bb10c
:1041400000200135a56370bd8068fff7b5fd002331
:10415000a360f6e76eb9406801f0faf86368226c74
:1041600013446360a268934219d3236863603046a6
:10417000e7e7c06801f0ecf8226c5242e3681344b0
:10418000e36021688b4202d2a3681a44e2600db159
:10419000022e01d00020d4e7013d0020d1e73046b7
:0241a000cfe767
:020000040000fa
:020000040c00ee
:1041a200431e13f1030f32d8037883b370b58160d5
:1041b2004260c56895f854304bb9c5f8fc0001233c
:1041c20085f8563095f869300f2b08d870bd95f8f0
:1041d20069300f2bfad9d5f8fc309842f6d10c464b
:1041e200002001f0c2f8012685f867600146002030
:1041f20001f030f9d5f8fc305b6800220821204636
:104202009847002385f8663085f86760dee77047d7
:020000040000fa
:020000040c00ee
:10421200aab3f0b514464a0901f01f01012c10d9c6
:1042220001235b009bb29c42fbd8db08232a25d8e2
:104232001b3200eb820500f1fc0c01244ff0000e52
:1042420006e00123f1e7cbb104357146ac4515d048
:104252002f4604fa01f02a6842402a605a1e0dd005
:104262001944a1f120001346ca1a9842ebd004fa6d
:1042720002f23e6872403a60013bf5d1f0bd7047f0
:020000040000fa
:020000040c00ee
:104282002de9f04f85b0d0f8b440678867b3804617
:104292000026b246b14635460fe094f8029094f8f3
:1042a20003a04146484600f0b2fa06460ae02378e7
:1042b2001d44adb21c44af4216d994f801b0bbf113
:1042c200040fead0002ef2d0f368002befd0b268d0
:1042d200b0880294cdf804b0cdf800a0d3f800b0b5
:0e42e2004b464146d847e2e705b0bde8f08ff5
:020000040000fa
:020000040c00ee
:1042f00038b5446990f9083013f1020f2ad0054609
:1043000094f90030002b0edb637813f0010f1ad004
:1043100063786ff300036370d4f8f030db6ca1783e
:10432000e06998470fe0d4f8f030db6894f8ac10ff
:10433000e069984723786ff3c7132370e37804226a
:1043400062f30203e37095f908301bb96b680bb98f
:0643500084f8c43038bd02
:020000040000fa
:020000040c00ee
:024356007047ae
:020000040000fa
:020000040c00ee
:1043580030b583b0002401940125009523464ff41d
:1043680080620d490d48fdf78df9019400952346ab
:104378004ff480620a490b48fdf784f90a4b019310
:10438800009523464ff4806208490948fdf77af9f9
:10439800fff748fc03b030bd2c4d000cb553000ca2
:1043a800404d000c9d53000c68050220504d000c38
:0443b800f955000ca7
:020000040000fa
:020000040c00ee
:1043bc0041690a8b164b03ebc203da88013ada80a7
:1043cc00d1f8e0301bb300b585b042680292019081
:1043dc0090f90820d0b201280ad912f1030f12d09b
:1043ec0012f1040f0cbf9f22a0228df80c2002e0ca
:1043fc0000228df80c20d1f8e42001a91120984757
:10440c0005b05df804fb9e228df80c20f3e7704795
:04441c0054a902207d
:020000040000fa
:020000040c00ee
:1044200041690a8b164b03ebc2039a88013a9a80c2
:10443000d1f8e0301bb300b585b04268029201901c
:1044400090f90820d0b201280ad912f1030f12d036
:1044500012f1040f0cbf9f22a0228df80c2002e065
:1044600000228df80c20d1f8e42001a910209847f3
:1044700005b05df804fb9e228df80c20f3e7704731
:0444800054a9022019
:020000040000fa
:020000040c00ee
:10448400eff30980bff36f8f154b1a681ef0100ffe
:1044940008bf20ed108a20e9f04f10602de90900d3
:1044a4004ff0200072b680f31188bff34f8fbff333
:1044b4006f8f62b6fff704f94ff0000080f31188a4
:1044c40009bc19680868b0e8f04f1ef0100f08bf67
:1044d400b0ec108a80f30988bff36f8f7047000037
:0444e40094a8022076
:020000040000fa
:020000040c00ee
:1044e80070b505460c4600f003fe134b1a682368a6
:1044f800b3f1ff3f1ad06968104800682e688642f9
:1045080001d0914206d9501a834207d8002323606c
:1045180001240ce000232360012408e09b1a0b44cb
:104528002360284600f066ff002400e0002400f025
:10453800e1ff204670bd00bf8ca9022080a902209f
:020000040000fa
:020000040c00ee
:104548000e4a38b5002313600d4a0e4c13600e4a0c
:104558000e4d13600e4a13600e4a13600e4a5362e2
:10456800136101239360fff7f2fefff7f0feac4200
:1045780000d338bd54f8043b9847f8e7a0a90220b7
:10458800d8a702200c00000cd4a702201000000cb1
:0c459800cca70220d0a70220dca7022044
:020000040000fa
:020000040c00ee
:1045a400124b01221a801a46136913f0010ffbd132
:1045b4000e4b48f280121a801a46136913f4004f06
:1045c400fbd10a4b01221a621a46136913f0200f19
:1045d400fbd1064b00225a621a46136913f0400fae
:1045e400fbd1024b4ff480725a817047002007447c
:020000040000fa
:020000040c00ee
:1045f4002de9f0410678c6f3420690f8ad80078aab
:104604004569dfb11035002405e00134e4b210350a
:10461400a3b2bb4212d215f8103c1e42f5d015f8d5
:104624000f3c4345f1d155f8043c002bedd05b68b9
:10463400002bead035f80c0c9847e6e7bde8f0818a
:020000040000fa
:020000040c00ee
:10464400036823f002030360c36913f0020ffbd174
:10465400036843f400730360036823f48073036006
:10466400036843f002030360c36913f0020ffbd134
:10467400836913f0020ffbd0836913f0010ffbd0a1
:0e46840041f22452835843f0020383507047e2
:020000040000fa
:020000040c00ee
:1046940010b500f079fbfff769f8fef74ef8fff765
:1046a4007fff0a490020fff7c9fc094c60600949f3
:1046b4000020fef74dfd206007490020fff7def9da
:1046c400a06000f099fcfff7bffb10bdf055000c93
:0c46d4005c0502203c4e000c6850000cfd
:020000040000fa
:020000040c00ee
:1046e000114b5a6a0ab1824203d11346002205e0f7
:1046f0001a469369002b18bf9842f9d19bb110b4a8
:1047000083691bb1846899682144996032b18369d7
:104710009361002383615df8044b7047024b5a6a32
:0c47200092695a62f5e7704798a80220e1
:020000040000fa
:020000040c00ee
:10472c0038b5044608461546214600f06bf8c0b172
:10473c00c36883b19b6843b1c4f8d8308088a4f8af
:10474c00d0002a460e21984738bd2a460e21204615
:10475c0000f042fbf8e72a460e21204600f03cfb15
:0c476c00f2e70121204600f0b9f8ede76b
:020000040000fa
:020000040c00ee
:10477800f8b50f4b1b68d3b10e4f0f4e0c4d00f020
:10478800b7fcfb68dc68201d00f08efc3368013b39
:1047980033602b68013b2b6000f0acfe206bfef70a
:1047a80030ff2046fef72dff2b68002be7d1f8bd20
:0c47b80068a9022034a9022064a9022094
:020000040000fa
:020000040c00ee
:1047c40010b50f4b1a6842f47f021a601a6842f05f
:1047d4007f421a600024043b1c6000f0d3fb094ba9
:1047e4001c6000f07ffe084a136843f040431360e6
:1047f40000f0b4fbfef764ff00f06afc204610bd35
:0c48040020ed00e0f8a9022034ef00e0f5
:020000040000fa
:020000040c00ee
:10481000f0b40d8a4a690c78c4f3420491f8ad6093
:10482000cdb1002305e010320133dbb299b2a942c9
:104830000dd211780c42f6d05178b142f3d1917873
:104840008142f0d8d77839448842ecda00e000227f
:0a4850001046f0bc70470022fae7a2
:020000040000fa
:020000040c00ee
:10485a0070b5d8b10546a0fb0132d2b901fb00f010
:10486a0010f1490f17d80c464830fff764fa06468c
:10487a0068b114b100f1480300e003463360f56300
:10488a00346401213046fff73ef900e00026304645
:0a489a0070bd0026fbe70026f9e7d9
:020000040000fa
:020000040c00ee
:1048a40038b5044600f04ffe002c16db63090c49b2
:1048b40051f8235004f01f04e54005f001050122de
:1048c40002fa04f4203341f82340bff34f8fbff3bf
:1048d4006f8f00f041fe284638bd0025f9e700bf80
:0448e40000e100e00f
:020000040000fa
:020000040c00ee
:1048e80038b50c4600f06efdc8b1002280f8c4202f
:1048f800012c0cd0002444668466d0f8f020956b17
:1049080000f164028021c069a847204638bdd0f86c
:10491800f020926a8021c06990470020f6e76ff086
:044928007400f3e73d
:020000040000fa
:020000040c00ee
:10492c00036823f002030360c36913f0020ffbd189
:10493c00036843f400730360036843f480730360fb
:10494c00036843f002030360c36913f0020ffbd149
:10495c00836913f0020ffbd0836913f0010ffbd0b6
:02496c00704792
:020000040000fa
:020000040c00ee
:10496e0038b50d46144600f02afdb8b1034600f1e5
:10497e00640245668466b0f8e810a14204d0a142f4
:10498e0004d90121416701e002214167d3f8f010fb
:10499e008c6b8021d869a047002038bd6ff0740061
:0249ae00fbe725
:020000040000fa
:020000040c00ee
:1049b00010b5054c227832b9044b13b10448aff35b
:1049c00000800123237010bdc8a802200000000051
:1049d0000000000008b5034b1bb103490348aff3c7
:1049e000008008bd00000000cca8022000000000ec
:020000040000fa
:020000040c00ee
:1049f000431e13f1030f0fd883b2042b0ed80a4abb
:104a000002eb4312d26982420ad15a0106498a5cfa
:104a100042b101eb431070470020704700207047ff
:0c4a20000020704700207047c8a602204c
:020000040000fa
:020000040c00ee
:104a2c000c4b93f820300bb10120704710b54ff0b0
:104a3c00ff31094800f02efc012801d0002010bde8
:104a4c00044cb4f90800fff727ff84f8210001207b
:0c4a5c00f5e700bf98a80220c0a80220c7
:020000040000fa
:020000040c00ee
:104a680010b50446fff7deffb0b12046fff7bcffe4
:104a7800044678b1437843b90020207560752070ea
:104a8800044600f019fa204610bdfff725fe002362
:0c4a98006370f1e70124f4e70124f4e767
:020000040000fa
:020000040c00ee
:104aa40030b4d0f8b4004588b5b1002307e0847869
:104ab4001470047823449bb220449d4209d944785d
:104ac400042cf4d0052cf4d184788c42f1d101204b
:0c4ad40000e0002030bc70470020fbe731
:020000040000fa
:020000040c00ee
:104ae000000000000000000000aaaaaaaaaaaaaa20
:104af000aaeeeeeeeeeeeeeeeefeffffffffffffa4
:104b0000ffffffffff7fbfdfeff7fbfdfc7ebfdf97
:084b1000eff7fbfd7e0000bf82
:020000040000fa
:020000040c00ee
:104b180090b90c4b93f90830022b10d1094b93f83c
:104b2800de3013b14ff0ff3070470648012380f89c
:104b3800de3080f8dd3070474ff0ff3070474ff0bf
:084b4800ff3070476ca502204c
:020000040000fa
:020000040c00ee
:104b500070b50b480b4d4ff6ff76016821b94368dd
:104b600013b9fff76cfa70bd83684268334000f1f7
:104b70000c0455f823302046984704eb8000ece7fe
:084b8000f005000c1055000cbb
:020000040000fa
:020000040c00ee
:104b8800431e13f1030f13d8037893b1c36801f0e0
:104b98000f0211f0800f14bf0c2100211b6e02ebd5
:104ba800420203ebc2030b44db7903f0010300e08c
:064bb800002318467047bf
:020000040000fa
:020000040c00ee
:104bbe00431e13f1030f13d8037893b1c36801f0aa
:104bce000f0211f0800f14bf0c2100211b6e02eb9f
:104bde00420203ebc2030b44db79c3f3400300e054
:064bee0000231846704789
:020000040000fa
:020000040c00ee
:104bf400431e13f1030f11d803788bb1c36893f8e4
:104c04005420012a07d05a6d02f0ff12b2f5803ffa
:104c140001d00020704793f864007047002070476b
:044c240000207047b5
:020000040000fa
:020000040c00ee
:104c2800f0b4037b6bb10223061dddb21f4616f8f4
:104c3800334044b10133092bf7d100252846f0bc95
:104c4800704701252f4600ebc7000123037141710e
:044c58008271f3e78b
:020000040000fa
:020000040c00ee
:104c5c0034034d006900630072006f00630068004c
:104c6c0069007000200054006500630068006e004d
:104c7c006f006c006f0067007900200049006e0027
:044c8c0063002e0093
:020000040000fa
:020000040c00ee
:104c900010b540b90a4b4ff080521a60bff34f8fe6
:104ca000bff36f8f10bd044600f07afc0021204650
:104cb000fef7acfcfdf70afa0028f3d1eae700bfe3
:044cc00004ed00e01f
:020000040000fa
:020000040c00ee
:104cc40030b40d68b5f1ff3f02d000f1080202e0f4
:104cd400026904e01a4653681c68ac42fad9536866
:104ce4004b6099608a605160086103680133036016
:044cf40030bc704719
:020000040000fa
:020000040c00ee
:104cf800431e13f1030f01d8037803b9704710b5a9
:104d0800c468206dfff70efe012384f86a3094f81a
:104d180054302bb994f8563013b9012384f856301f
:024d280010bdbc
:020000040000fa
:020000040c00ee
:104d2c005553425f4445564943455f5441534b5399
:104d3c005f3000004452565f55534248535f544114
:104d4c00534b53004150505f5461736b730000bf61
:020000040000fa
:020000040c00ee
:104d5c0008b54ff0200372b683f31188bff36f8f41
:104d6c00bff34f8f62b6fdf723f818b1034b4ff02a
:104d7c0080521a60002383f3118808bd04ed00e013
:020000040000fa
:020000040c00ee
:104d8c00094b4ff40012c3f880204ff09072c3f817
:104d9c009020002283f8d520062183f8d81083f8c0
:0c4dac00ba2083f8bc207047000084444b
:020000040000fa
:020000040c00ee
:104db80008b5084b9a8992b207494a604cf2ff320b
:104dc8009a819b890b6823b10b46486889681b68e0
:0c4dd800984708bd0020074448a90220ad
:020000040000fa
:020000040c00ee
:104de40070b5d0f8e040c0f8d840038ba0f8d030bc
:104df40090f8dd30012b00d104b970bd16460d4684
:0c4e0400d0f8e42031462846a047f6e72d
:020000040000fa
:020000040c00ee
:104e10002c0343007500730074006f006d002000c8
:104e200056006900640065006f00200053007400a4
:0c4e30007200650061006d0065007200fa
:020000040000fa
:020000040c00ee
:104e3c000000000000000000000000000000000066
:104e4c0000000000010000009055000c684e000ca2
:0c4e5c000100010001000000a4a90220d8
:020000040000fa
:020000040c00ee
:104e6800c054000c010000002c56000cc054000c6b
:104e7800010000003056000c03000000d855000c5b
:0c4e8800cc55000ccc55000c00000000c4
